{
  "_format": "hh-sol-artifact-1",
  "contractName": "CoffeePortal",
  "sourceName": "contracts/CoffeePortal.sol",
  "abi": [
    {
      "inputs": [],
      "stateMutability": "payable",
      "type": "constructor"
    },
    {
      "anonymous": false,
      "inputs": [
        {
          "indexed": true,
          "internalType": "address",
          "name": "from",
          "type": "address"
        },
        {
          "indexed": false,
          "internalType": "uint256",
          "name": "timestamp",
          "type": "uint256"
        },
        {
          "indexed": false,
          "internalType": "string",
          "name": "message",
          "type": "string"
        },
        {
          "indexed": false,
          "internalType": "string",
          "name": "name",
          "type": "string"
        }
      ],
      "name": "NewCoffee",
      "type": "event"
    },
    {
      "inputs": [
        {
          "internalType": "string",
          "name": "_message",
          "type": "string"
        },
        {
          "internalType": "string",
          "name": "_name",
          "type": "string"
        },
        {
          "internalType": "uint256",
          "name": "_payAmount",
          "type": "uint256"
        }
      ],
      "name": "buyCoffee",
      "outputs": [],
      "stateMutability": "payable",
      "type": "function"
    },
    {
      "inputs": [],
      "name": "getAllCoffee",
      "outputs": [
        {
          "components": [
            {
              "internalType": "address",
              "name": "giver",
              "type": "address"
            },
            {
              "internalType": "string",
              "name": "message",
              "type": "string"
            },
            {
              "internalType": "string",
              "name": "name",
              "type": "string"
            },
            {
              "internalType": "uint256",
              "name": "payAmount",
              "type": "uint256"
            },
            {
              "internalType": "uint256",
              "name": "timestamp",
              "type": "uint256"
            }
          ],
          "internalType": "struct CoffeePortal.Coffee[]",
          "name": "",
          "type": "tuple[]"
        }
      ],
      "stateMutability": "view",
      "type": "function"
    },
    {
      "inputs": [],
      "name": "getTotalCoffee",
      "outputs": [
        {
          "internalType": "uint256",
          "name": "",
          "type": "uint256"
        }
      ],
      "stateMutability": "view",
      "type": "function"
    },
    {
      "inputs": [],
      "name": "owner",
      "outputs": [
        {
          "internalType": "address payable",
          "name": "",
          "type": "address"
        }
      ],
      "stateMutability": "view",
      "type": "function"
    }
  ],
  "bytecode": "0x60806040526200004f6040518060400160405280600e81526020017f4865792c2049276d2068657265210000000000000000000000000000000000008152506200009660201b620006a41760201c565b33600160006101000a81548173ffffffffffffffffffffffffffffffffffffffff021916908373ffffffffffffffffffffffffffffffffffffffff1602179055506200022a565b6200013681604051602401620000ad9190620001a3565b6040516020818303038152906040527f41304fac000000000000000000000000000000000000000000000000000000007bffffffffffffffffffffffffffffffffffffffffffffffffffffffff19166020820180517bffffffffffffffffffffffffffffffffffffffffffffffffffffffff83818316178352505050506200013960201b60201c565b50565b60008151905060006a636f6e736f6c652e6c6f679050602083016000808483855afa5050505050565b60006200016f82620001c7565b6200017b8185620001d2565b93506200018d818560208601620001e3565b620001988162000219565b840191505092915050565b60006020820190508181036000830152620001bf818462000162565b905092915050565b600081519050919050565b600082825260208201905092915050565b60005b8381101562000203578082015181840152602081019050620001e6565b8381111562000213576000848401525b50505050565b6000601f19601f8301169050919050565b61103c806200023a6000396000f3fe60806040526004361061003f5760003560e01c8063441315c5146100445780634839ee3f146100605780638da5cb5b1461008b578063d386beca146100b6575b600080fd5b61005e600480360381019061005991906109a4565b6100e1565b005b34801561006c57600080fd5b50610075610426565b6040516100829190610e1a565b60405180910390f35b34801561009757600080fd5b506100a0610471565b6040516100ad9190610cfb565b60405180910390f35b3480156100c257600080fd5b506100cb610497565b6040516100d89190610d16565b60405180910390f35b600066038d7ea4c68000905080341015610130576040517f08c379a000000000000000000000000000000000000000000000000000000000815260040161012790610dfa565b60405180910390fd5b348214610172576040517f08c379a000000000000000000000000000000000000000000000000000000000815260040161016990610dba565b60405180910390fd5b600160008082825401925050819055506101c16040518060400160405280600f81526020017f50617961626c65204d53473a20257300000000000000000000000000000000008152503461073d565b6102006040518060400160405280601481526020017f2573206a7573742073656e74206120636f666565000000000000000000000000815250336107d9565b60026040518060a001604052803373ffffffffffffffffffffffffffffffffffffffff16815260200186815260200185815260200134815260200142815250908060018154018082558091505060019003906000526020600020906005020160009091909190915060008201518160000160006101000a81548173ffffffffffffffffffffffffffffffffffffffff021916908373ffffffffffffffffffffffffffffffffffffffff16021790555060208201518160010190805190602001906102cb92919061089e565b5060408201518160020190805190602001906102e892919061089e565b50606082015181600301556080820151816004015550506000600160009054906101000a900473ffffffffffffffffffffffffffffffffffffffff1673ffffffffffffffffffffffffffffffffffffffff163460405161034790610ce6565b60006040518083038185875af1925050503d8060008114610384576040519150601f19603f3d011682016040523d82523d6000602084013e610389565b606091505b50509050806103cd576040517f08c379a00000000000000000000000000000000000000000000000000000000081526004016103c490610dda565b60405180910390fd5b3373ffffffffffffffffffffffffffffffffffffffff167f5d202edb9ac9aca913189e3c829f7fdbba23859e91379c70ecf7874fe39632a742878760405161041793929190610e35565b60405180910390a25050505050565b60006104696040518060400160405280601381526020017f546f74616c20636f666665652073656e743a200000000000000000000000000081525060005461073d565b600054905090565b600160009054906101000a900473ffffffffffffffffffffffffffffffffffffffff1681565b60606002805480602002602001604051908101604052809291908181526020016000905b8282101561069b57838290600052602060002090600502016040518060a00160405290816000820160009054906101000a900473ffffffffffffffffffffffffffffffffffffffff1673ffffffffffffffffffffffffffffffffffffffff1673ffffffffffffffffffffffffffffffffffffffff168152602001600182018054600181600116156101000203166002900480601f0160208091040260200160405190810160405280929190818152602001828054600181600116156101000203166002900480156105cd5780601f106105a2576101008083540402835291602001916105cd565b820191906000526020600020905b8154815290600101906020018083116105b057829003601f168201915b50505050508152602001600282018054600181600116156101000203166002900480601f01602080910402602001604051908101604052809291908181526020018280546001816001161561010002031660029004801561066f5780601f106106445761010080835404028352916020019161066f565b820191906000526020600020905b81548152906001019060200180831161065257829003601f168201915b5050505050815260200160038201548152602001600482015481525050815260200190600101906104bb565b50505050905090565b61073a816040516024016106b89190610d38565b6040516020818303038152906040527f41304fac000000000000000000000000000000000000000000000000000000007bffffffffffffffffffffffffffffffffffffffffffffffffffffffff19166020820180517bffffffffffffffffffffffffffffffffffffffffffffffffffffffff8381831617835250505050610875565b50565b6107d58282604051602401610753929190610d8a565b6040516020818303038152906040527f9710a9d0000000000000000000000000000000000000000000000000000000007bffffffffffffffffffffffffffffffffffffffffffffffffffffffff19166020820180517bffffffffffffffffffffffffffffffffffffffffffffffffffffffff8381831617835250505050610875565b5050565b61087182826040516024016107ef929190610d5a565b6040516020818303038152906040527f319af333000000000000000000000000000000000000000000000000000000007bffffffffffffffffffffffffffffffffffffffffffffffffffffffff19166020820180517bffffffffffffffffffffffffffffffffffffffffffffffffffffffff8381831617835250505050610875565b5050565b60008151905060006a636f6e736f6c652e6c6f679050602083016000808483855afa5050505050565b828054600181600116156101000203166002900490600052602060002090601f016020900481019282601f106108df57805160ff191683800117855561090d565b8280016001018555821561090d579182015b8281111561090c5782518255916020019190600101906108f1565b5b50905061091a919061091e565b5090565b5b8082111561093757600081600090555060010161091f565b5090565b600082601f83011261094c57600080fd5b813561095f61095a82610eab565b610e7a565b9150808252602083016020830185838301111561097b57600080fd5b610986838284610f9a565b50505092915050565b60008135905061099e81610fef565b92915050565b6000806000606084860312156109b957600080fd5b600084013567ffffffffffffffff8111156109d357600080fd5b6109df8682870161093b565b935050602084013567ffffffffffffffff8111156109fc57600080fd5b610a088682870161093b565b9250506040610a198682870161098f565b9150509250925092565b6000610a2f8383610c4b565b905092915050565b610a4081610f5e565b82525050565b610a4f81610f4c565b82525050565b610a5e81610f4c565b82525050565b6000610a6f82610eeb565b610a798185610f0e565b935083602082028501610a8b85610edb565b8060005b85811015610ac75784840389528151610aa88582610a23565b9450610ab383610f01565b925060208a01995050600181019050610a8f565b50829750879550505050505092915050565b6000610ae482610ef6565b610aee8185610f2a565b9350610afe818560208601610fa9565b610b0781610fde565b840191505092915050565b6000610b1d82610ef6565b610b278185610f3b565b9350610b37818560208601610fa9565b610b4081610fde565b840191505092915050565b6000610b58601b83610f3b565b91507f44697374696e637420616d6f756e747320776572652073656e742e00000000006000830152602082019050919050565b6000610b98601583610f3b565b91507f4661696c656420746f2073656e6420616d6f756e7400000000000000000000006000830152602082019050919050565b6000610bd8602a83610f3b565b91507f496e737566696369656e7420616d6f756e7420666f722061206d696e696d756d60008301527f2073656c65637465642e000000000000000000000000000000000000000000006020830152604082019050919050565b6000610c3e600083610f1f565b9150600082019050919050565b600060a083016000830151610c636000860182610a46565b5060208301518482036020860152610c7b8282610ad9565b91505060408301518482036040860152610c958282610ad9565b9150506060830151610caa6060860182610cc8565b506080830151610cbd6080860182610cc8565b508091505092915050565b610cd181610f90565b82525050565b610ce081610f90565b82525050565b6000610cf182610c31565b9150819050919050565b6000602082019050610d106000830184610a37565b92915050565b60006020820190508181036000830152610d308184610a64565b905092915050565b60006020820190508181036000830152610d528184610b12565b905092915050565b60006040820190508181036000830152610d748185610b12565b9050610d836020830184610a55565b9392505050565b60006040820190508181036000830152610da48185610b12565b9050610db36020830184610cd7565b9392505050565b60006020820190508181036000830152610dd381610b4b565b9050919050565b60006020820190508181036000830152610df381610b8b565b9050919050565b60006020820190508181036000830152610e1381610bcb565b9050919050565b6000602082019050610e2f6000830184610cd7565b92915050565b6000606082019050610e4a6000830186610cd7565b8181036020830152610e5c8185610b12565b90508181036040830152610e708184610b12565b9050949350505050565b6000604051905081810181811067ffffffffffffffff82111715610ea157610ea0610fdc565b5b8060405250919050565b600067ffffffffffffffff821115610ec657610ec5610fdc565b5b601f19601f8301169050602081019050919050565b6000819050602082019050919050565b600081519050919050565b600081519050919050565b6000602082019050919050565b600082825260208201905092915050565b600081905092915050565b600082825260208201905092915050565b600082825260208201905092915050565b6000610f5782610f70565b9050919050565b6000610f6982610f70565b9050919050565b600073ffffffffffffffffffffffffffffffffffffffff82169050919050565b6000819050919050565b82818337600083830152505050565b60005b83811015610fc7578082015181840152602081019050610fac565b83811115610fd6576000848401525b50505050565bfe5b6000601f19601f8301169050919050565b610ff881610f90565b811461100357600080fd5b5056fea264697066735822122017c356957f323a245b2e8593f1f62f774549a3bf2fe3292e0a2bc767b1e7c12564736f6c63430007030033",
  "linkReferences": {},
  "deployedLinkReferences": {}
}