{
  "contractName": "Test",
  "abi": [
    {
      "inputs": [
        {
          "internalType": "address",
          "name": "",
          "type": "address"
        }
      ],
      "name": "exists",
      "outputs": [
        {
          "internalType": "bool",
          "name": "",
          "type": "bool"
        }
      ],
      "stateMutability": "view",
      "type": "function",
      "constant": true
    },
    {
      "inputs": [
        {
          "internalType": "address",
          "name": "",
          "type": "address"
        }
      ],
      "name": "patients",
      "outputs": [
        {
          "internalType": "string",
          "name": "name",
          "type": "string"
        },
        {
          "internalType": "uint256",
          "name": "age",
          "type": "uint256"
        }
      ],
      "stateMutability": "view",
      "type": "function",
      "constant": true
    },
    {
      "inputs": [
        {
          "internalType": "address",
          "name": "_myAddr",
          "type": "address"
        }
      ],
      "name": "check",
      "outputs": [
        {
          "internalType": "bool",
          "name": "",
          "type": "bool"
        }
      ],
      "stateMutability": "view",
      "type": "function",
      "constant": true
    },
    {
      "inputs": [
        {
          "internalType": "address",
          "name": "_myAddr",
          "type": "address"
        },
        {
          "internalType": "string",
          "name": "_name",
          "type": "string"
        },
        {
          "internalType": "uint256",
          "name": "_age",
          "type": "uint256"
        }
      ],
      "name": "addPatient",
      "outputs": [],
      "stateMutability": "nonpayable",
      "type": "function"
    },
    {
      "inputs": [
        {
          "internalType": "address",
          "name": "_myAddr",
          "type": "address"
        }
      ],
      "name": "getPatient",
      "outputs": [
        {
          "internalType": "string",
          "name": "",
          "type": "string"
        },
        {
          "internalType": "uint256",
          "name": "",
          "type": "uint256"
        }
      ],
      "stateMutability": "view",
      "type": "function",
      "constant": true
    }
  ],
  "bytecode": "0x608060405234801561001057600080fd5b506108a6806100206000396000f3fe608060405234801561001057600080fd5b50600436106100575760003560e01c80630869cfbc1461005c578063b5368e201461008d578063c23697a8146100be578063ebda21ed146100ee578063f6a3d24e1461010a575b600080fd5b61007660048036038101906100719190610542565b61013a565b604051610084929190610644565b60405180910390f35b6100a760048036038101906100a29190610542565b6101e6565b6040516100b5929190610644565b60405180910390f35b6100d860048036038101906100d39190610542565b610304565b6040516100e59190610629565b60405180910390f35b6101086004803603810190610103919061056b565b61036a565b005b610124600480360381019061011f9190610542565b6103ed565b6040516101319190610629565b60405180910390f35b600160205280600052604060002060009150905080600001805461015d90610770565b80601f016020809104026020016040519081016040528092919081815260200182805461018990610770565b80156101d65780601f106101ab576101008083540402835291602001916101d6565b820191906000526020600020905b8154815290600101906020018083116101b957829003601f168201915b5050505050908060010154905082565b60606000600160008473ffffffffffffffffffffffffffffffffffffffff1673ffffffffffffffffffffffffffffffffffffffff168152602001908152602001600020600001600160008573ffffffffffffffffffffffffffffffffffffffff1673ffffffffffffffffffffffffffffffffffffffff1681526020019081526020016000206001015481805461027b90610770565b80601f01602080910402602001604051908101604052809291908181526020018280546102a790610770565b80156102f45780601f106102c9576101008083540402835291602001916102f4565b820191906000526020600020905b8154815290600101906020018083116102d757829003601f168201915b5050505050915091509150915091565b60008060008373ffffffffffffffffffffffffffffffffffffffff1673ffffffffffffffffffffffffffffffffffffffff16815260200190815260200160002060009054906101000a900460ff16156103605760019050610365565b600090505b919050565b604051806040016040528083815260200182815250600160008573ffffffffffffffffffffffffffffffffffffffff1673ffffffffffffffffffffffffffffffffffffffff16815260200190815260200160002060008201518160000190805190602001906103da92919061040d565b5060208201518160010155905050505050565b60006020528060005260406000206000915054906101000a900460ff1681565b82805461041990610770565b90600052602060002090601f01602090048101928261043b5760008555610482565b82601f1061045457805160ff1916838001178555610482565b82800160010185558215610482579182015b82811115610481578251825591602001919060010190610466565b5b50905061048f9190610493565b5090565b5b808211156104ac576000816000905550600101610494565b5090565b60006104c36104be84610699565b610674565b9050828152602081018484840111156104db57600080fd5b6104e684828561072e565b509392505050565b6000813590506104fd81610842565b92915050565b600082601f83011261051457600080fd5b81356105248482602086016104b0565b91505092915050565b60008135905061053c81610859565b92915050565b60006020828403121561055457600080fd5b6000610562848285016104ee565b91505092915050565b60008060006060848603121561058057600080fd5b600061058e868287016104ee565b935050602084013567ffffffffffffffff8111156105ab57600080fd5b6105b786828701610503565b92505060406105c88682870161052d565b9150509250925092565b6105db816106f8565b82525050565b60006105ec826106ca565b6105f681856106d5565b935061060681856020860161073d565b61060f81610831565b840191505092915050565b61062381610724565b82525050565b600060208201905061063e60008301846105d2565b92915050565b6000604082019050818103600083015261065e81856105e1565b905061066d602083018461061a565b9392505050565b600061067e61068f565b905061068a82826107a2565b919050565b6000604051905090565b600067ffffffffffffffff8211156106b4576106b3610802565b5b6106bd82610831565b9050602081019050919050565b600081519050919050565b600082825260208201905092915050565b60006106f182610704565b9050919050565b60008115159050919050565b600073ffffffffffffffffffffffffffffffffffffffff82169050919050565b6000819050919050565b82818337600083830152505050565b60005b8381101561075b578082015181840152602081019050610740565b8381111561076a576000848401525b50505050565b6000600282049050600182168061078857607f821691505b6020821081141561079c5761079b6107d3565b5b50919050565b6107ab82610831565b810181811067ffffffffffffffff821117156107ca576107c9610802565b5b80604052505050565b7f4e487b7100000000000000000000000000000000000000000000000000000000600052602260045260246000fd5b7f4e487b7100000000000000000000000000000000000000000000000000000000600052604160045260246000fd5b6000601f19601f8301169050919050565b61084b816106e6565b811461085657600080fd5b50565b61086281610724565b811461086d57600080fd5b5056fea26469706673582212200af1991035376bef49408e7b21f7fb158c2373ae558a4db9b42e2976788971fb64736f6c63430008030033",
  "immutableReferences": {},
  "source": "// SPDX-License-Identifier: MIT\r\npragma solidity >=0.6.2 <0.9.0;\r\ncontract Test{\r\n\r\n    struct Patient{ \r\n     string name;\r\n     uint age;\r\n}\r\n    mapping(address=>bool) public exists;\r\n    mapping(address=>Patient) public patients;\r\n    \r\n\r\n    function check(address _myAddr) public view returns(bool){\r\n        if(exists[_myAddr])\r\n        return true;\r\n        else\r\n        return false;\r\n    }\r\n\r\n    function addPatient (address _myAddr,string memory _name,uint _age) public \r\n    {\r\n        // var patient = patients[_myAddr];\r\n        // memory  patient=Patient(_name,_age);\r\n        patients[_myAddr]=Patient(_name,_age);\r\n        // patient.name=_name;\r\n        // patient.age=_age;\r\n    }\r\n\r\n    function getPatient(address _myAddr)view public returns (string memory ,uint){\r\n        \treturn(patients[_myAddr].name,patients[_myAddr].age);\r\n}\r\n}",
  "sourcePath": "C:/Users/surbh/Desktop/vault-dapp/contracts/Test.sol",
  "compiler": {
    "name": "solc",
    "version": "0.8.3+commit.8d00100c.Emscripten.clang"
  },
  "schemaVersion": "3.3.4",
  "updatedAt": "2021-12-29T19:02:25.052Z",
  "networkType": "ethereum",
  "devdoc": {
    "kind": "dev",
    "methods": {},
    "version": 1
  },
  "userdoc": {
    "kind": "user",
    "methods": {},
    "version": 1
  }
}