{
  "contractName": "Vault",
  "abi": [
    {
      "inputs": [],
      "stateMutability": "nonpayable",
      "type": "constructor"
    },
    {
      "anonymous": false,
      "inputs": [
        {
          "indexed": true,
          "internalType": "address",
          "name": "previousOwner",
          "type": "address"
        },
        {
          "indexed": true,
          "internalType": "address",
          "name": "newOwner",
          "type": "address"
        }
      ],
      "name": "OwnershipTransferred",
      "type": "event"
    },
    {
      "anonymous": false,
      "inputs": [
        {
          "indexed": false,
          "internalType": "address",
          "name": "withdrawer",
          "type": "address"
        },
        {
          "indexed": false,
          "internalType": "uint256",
          "name": "amount",
          "type": "uint256"
        }
      ],
      "name": "Withdraw",
      "type": "event"
    },
    {
      "inputs": [
        {
          "internalType": "address",
          "name": "",
          "type": "address"
        },
        {
          "internalType": "uint256",
          "name": "",
          "type": "uint256"
        }
      ],
      "name": "depositsByTokenAddress",
      "outputs": [
        {
          "internalType": "uint256",
          "name": "",
          "type": "uint256"
        }
      ],
      "stateMutability": "view",
      "type": "function"
    },
    {
      "inputs": [
        {
          "internalType": "address",
          "name": "",
          "type": "address"
        },
        {
          "internalType": "uint256",
          "name": "",
          "type": "uint256"
        }
      ],
      "name": "depositsByWithdrawers",
      "outputs": [
        {
          "internalType": "uint256",
          "name": "",
          "type": "uint256"
        }
      ],
      "stateMutability": "view",
      "type": "function"
    },
    {
      "inputs": [],
      "name": "depositsCount",
      "outputs": [
        {
          "internalType": "uint256",
          "name": "",
          "type": "uint256"
        }
      ],
      "stateMutability": "view",
      "type": "function"
    },
    {
      "inputs": [],
      "name": "helpiMarketingAddress",
      "outputs": [
        {
          "internalType": "address",
          "name": "",
          "type": "address"
        }
      ],
      "stateMutability": "view",
      "type": "function"
    },
    {
      "inputs": [
        {
          "internalType": "uint256",
          "name": "",
          "type": "uint256"
        }
      ],
      "name": "lockedToken",
      "outputs": [
        {
          "internalType": "contract IERC20",
          "name": "token",
          "type": "address"
        },
        {
          "internalType": "address",
          "name": "withdrawer",
          "type": "address"
        },
        {
          "internalType": "uint256",
          "name": "amount",
          "type": "uint256"
        },
        {
          "internalType": "uint256",
          "name": "unlockTimestamp",
          "type": "uint256"
        },
        {
          "internalType": "bool",
          "name": "withdrawn",
          "type": "bool"
        },
        {
          "internalType": "bool",
          "name": "deposited",
          "type": "bool"
        }
      ],
      "stateMutability": "view",
      "type": "function"
    },
    {
      "inputs": [],
      "name": "owner",
      "outputs": [
        {
          "internalType": "address",
          "name": "",
          "type": "address"
        }
      ],
      "stateMutability": "view",
      "type": "function"
    },
    {
      "inputs": [],
      "name": "renounceOwnership",
      "outputs": [],
      "stateMutability": "nonpayable",
      "type": "function"
    },
    {
      "inputs": [
        {
          "internalType": "address",
          "name": "newOwner",
          "type": "address"
        }
      ],
      "name": "transferOwnership",
      "outputs": [],
      "stateMutability": "nonpayable",
      "type": "function"
    },
    {
      "inputs": [
        {
          "internalType": "address",
          "name": "",
          "type": "address"
        },
        {
          "internalType": "address",
          "name": "",
          "type": "address"
        }
      ],
      "name": "walletTokenBalance",
      "outputs": [
        {
          "internalType": "uint256",
          "name": "",
          "type": "uint256"
        }
      ],
      "stateMutability": "view",
      "type": "function"
    },
    {
      "inputs": [
        {
          "internalType": "contract IERC20",
          "name": "_token",
          "type": "address"
        },
        {
          "internalType": "address",
          "name": "_withdrawer",
          "type": "address"
        },
        {
          "internalType": "uint256",
          "name": "_amount",
          "type": "uint256"
        },
        {
          "internalType": "uint256",
          "name": "_unlockTimestamp",
          "type": "uint256"
        }
      ],
      "name": "lockTokens",
      "outputs": [
        {
          "internalType": "uint256",
          "name": "_id",
          "type": "uint256"
        }
      ],
      "stateMutability": "nonpayable",
      "type": "function"
    },
    {
      "inputs": [
        {
          "internalType": "uint256",
          "name": "_id",
          "type": "uint256"
        }
      ],
      "name": "withdrawTokens",
      "outputs": [],
      "stateMutability": "nonpayable",
      "type": "function"
    },
    {
      "inputs": [
        {
          "internalType": "address",
          "name": "_id",
          "type": "address"
        }
      ],
      "name": "getDepositsByTokenAddress",
      "outputs": [
        {
          "internalType": "uint256[]",
          "name": "",
          "type": "uint256[]"
        }
      ],
      "stateMutability": "view",
      "type": "function"
    },
    {
      "inputs": [
        {
          "internalType": "address",
          "name": "_token",
          "type": "address"
        },
        {
          "internalType": "address",
          "name": "_withdrawer",
          "type": "address"
        }
      ],
      "name": "getDepositsByWithdrawer",
      "outputs": [
        {
          "internalType": "uint256",
          "name": "",
          "type": "uint256"
        }
      ],
      "stateMutability": "view",
      "type": "function"
    },
    {
      "inputs": [
        {
          "internalType": "address",
          "name": "_withdrawer",
          "type": "address"
        }
      ],
      "name": "getVaultsByWithdrawer",
      "outputs": [
        {
          "internalType": "uint256[]",
          "name": "",
          "type": "uint256[]"
        }
      ],
      "stateMutability": "view",
      "type": "function"
    },
    {
      "inputs": [
        {
          "internalType": "uint256",
          "name": "_id",
          "type": "uint256"
        }
      ],
      "name": "getVaultById",
      "outputs": [
        {
          "components": [
            {
              "internalType": "contract IERC20",
              "name": "token",
              "type": "address"
            },
            {
              "internalType": "address",
              "name": "withdrawer",
              "type": "address"
            },
            {
              "internalType": "uint256",
              "name": "amount",
              "type": "uint256"
            },
            {
              "internalType": "uint256",
              "name": "unlockTimestamp",
              "type": "uint256"
            },
            {
              "internalType": "bool",
              "name": "withdrawn",
              "type": "bool"
            },
            {
              "internalType": "bool",
              "name": "deposited",
              "type": "bool"
            }
          ],
          "internalType": "struct Vault.Items",
          "name": "",
          "type": "tuple"
        }
      ],
      "stateMutability": "view",
      "type": "function"
    },
    {
      "inputs": [
        {
          "internalType": "address",
          "name": "_token",
          "type": "address"
        }
      ],
      "name": "getTokenTotalLockedBalance",
      "outputs": [
        {
          "internalType": "uint256",
          "name": "",
          "type": "uint256"
        }
      ],
      "stateMutability": "view",
      "type": "function"
    },
    {
      "inputs": [],
      "name": "getsender",
      "outputs": [
        {
          "internalType": "address",
          "name": "",
          "type": "address"
        }
      ],
      "stateMutability": "view",
      "type": "function"
    }
  ],
  "bytecode": "0x608060405234801561001057600080fd5b5060006100216100c460201b60201c565b9050806000806101000a81548173ffffffffffffffffffffffffffffffffffffffff021916908373ffffffffffffffffffffffffffffffffffffffff1602179055508073ffffffffffffffffffffffffffffffffffffffff16600073ffffffffffffffffffffffffffffffffffffffff167f8be0079c531659141344cd1fd0a4f28419497f9722a3daafe3b4186f6b6457e060405160405180910390a3506100cc565b600033905090565b612726806100db6000396000f3fe608060405234801561001057600080fd5b506004361061010b5760003560e01c806386f65a22116100a2578063b78a153211610071578063b78a1532146102e0578063b9e7df1c14610310578063bb941cff14610340578063d0158e2b14610375578063f2fde38b146103935761010b565b806386f65a22146102325780638da5cb5b146102625780639470877614610280578063aa9ce2e6146102b05761010b565b8063715018a6116100de578063715018a6146101aa57806371546b81146101b457806374e7ff9e146101e45780637d533c1e146102025761010b565b8063315a095d146101105780633fd97b9b1461012c5780634506e9351461015c5780636a8003301461017a575b600080fd5b61012a60048036038101906101259190611a70565b6103af565b005b610146600480360381019061014191906119a8565b6107fc565b6040516101539190612177565b60405180910390f35b61016461082d565b6040516101719190612177565b60405180910390f35b610194600480360381019061018f919061196c565b610833565b6040516101a19190612177565b60405180910390f35b6101b26108ba565b005b6101ce60048036038101906101c99190611943565b6109f4565b6040516101db9190611f17565b60405180910390f35b6101ec610a8b565b6040516101f99190611e73565b60405180910390f35b61021c60048036038101906102179190611a0d565b610ab1565b6040516102299190612177565b60405180910390f35b61024c60048036038101906102479190611943565b610fb2565b6040516102599190611f17565b60405180910390f35b61026a611049565b6040516102779190611e73565b60405180910390f35b61029a60048036038101906102959190611a70565b611072565b6040516102a7919061215c565b60405180910390f35b6102ca60048036038101906102c591906119a8565b611195565b6040516102d79190612177565b60405180910390f35b6102fa60048036038101906102f59190611943565b6111c6565b6040516103079190612177565b60405180910390f35b61032a6004803603810190610325919061196c565b611258565b6040516103379190612177565b60405180910390f35b61035a60048036038101906103559190611a70565b61127d565b60405161036c96959493929190611f39565b60405180910390f35b61037d611313565b60405161038a9190611e73565b60405180910390f35b6103ad60048036038101906103a89190611943565b61131b565b005b6004600082815260200190815260200160002060030154421015610408576040517f08c379a00000000000000000000000000000000000000000000000000000000081526004016103ff9061207c565b60405180910390fd5b6004600082815260200190815260200160002060010160009054906101000a900473ffffffffffffffffffffffffffffffffffffffff1673ffffffffffffffffffffffffffffffffffffffff163373ffffffffffffffffffffffffffffffffffffffff16146104ac576040517f08c379a00000000000000000000000000000000000000000000000000000000081526004016104a390611fbc565b60405180910390fd5b6004600082815260200190815260200160002060040160019054906101000a900460ff1661050f576040517f08c379a000000000000000000000000000000000000000000000000000000000815260040161050690611fdc565b60405180910390fd5b6004600082815260200190815260200160002060040160009054906101000a900460ff1615610573576040517f08c379a000000000000000000000000000000000000000000000000000000000815260040161056a9061201c565b60405180910390fd5b60016004600083815260200190815260200160002060040160006101000a81548160ff02191690831515021790555061067d6004600083815260200190815260200160002060020154600560006004600086815260200190815260200160002060000160009054906101000a900473ffffffffffffffffffffffffffffffffffffffff1673ffffffffffffffffffffffffffffffffffffffff1673ffffffffffffffffffffffffffffffffffffffff16815260200190815260200160002060003373ffffffffffffffffffffffffffffffffffffffff1673ffffffffffffffffffffffffffffffffffffffff168152602001908152602001600020546114c490919063ffffffff16565b600560006004600085815260200190815260200160002060000160009054906101000a900473ffffffffffffffffffffffffffffffffffffffff1673ffffffffffffffffffffffffffffffffffffffff1673ffffffffffffffffffffffffffffffffffffffff16815260200190815260200160002060003373ffffffffffffffffffffffffffffffffffffffff1673ffffffffffffffffffffffffffffffffffffffff168152602001908152602001600020819055507f884edad9ce6fa2440d8a54cc123490eb96d2768479d49ff9c7366125a942436433600460008481526020019081526020016000206002015460405161077a929190611eee565b60405180910390a16107f93360046000848152602001908152602001600020600201546004600085815260200190815260200160002060000160009054906101000a900473ffffffffffffffffffffffffffffffffffffffff1673ffffffffffffffffffffffffffffffffffffffff166114da9092919063ffffffff16565b50565b6002602052816000526040600020818154811061081857600080fd5b90600052602060002001600091509150505481565b60015481565b6000600560008473ffffffffffffffffffffffffffffffffffffffff1673ffffffffffffffffffffffffffffffffffffffff16815260200190815260200160002060008373ffffffffffffffffffffffffffffffffffffffff1673ffffffffffffffffffffffffffffffffffffffff16815260200190815260200160002054905092915050565b6108c2611560565b73ffffffffffffffffffffffffffffffffffffffff166108e0611049565b73ffffffffffffffffffffffffffffffffffffffff1614610936576040517f08c379a000000000000000000000000000000000000000000000000000000000815260040161092d9061209c565b60405180910390fd5b600073ffffffffffffffffffffffffffffffffffffffff1660008054906101000a900473ffffffffffffffffffffffffffffffffffffffff1673ffffffffffffffffffffffffffffffffffffffff167f8be0079c531659141344cd1fd0a4f28419497f9722a3daafe3b4186f6b6457e060405160405180910390a360008060006101000a81548173ffffffffffffffffffffffffffffffffffffffff021916908373ffffffffffffffffffffffffffffffffffffffff160217905550565b6060600360008373ffffffffffffffffffffffffffffffffffffffff1673ffffffffffffffffffffffffffffffffffffffff168152602001908152602001600020805480602002602001604051908101604052809291908181526020018280548015610a7f57602002820191906000526020600020905b815481526020019060010190808311610a6b575b50505050509050919050565b600660009054906101000a900473ffffffffffffffffffffffffffffffffffffffff1681565b60006101f48311610af7576040517f08c379a0000000000000000000000000000000000000000000000000000000008152600401610aee9061211c565b60405180910390fd5b6402540be4008210610b3e576040517f08c379a0000000000000000000000000000000000000000000000000000000008152600401610b35906120fc565b60405180910390fd5b428211610b80576040517f08c379a0000000000000000000000000000000000000000000000000000000008152600401610b77906120bc565b60405180910390fd5b828573ffffffffffffffffffffffffffffffffffffffff1663dd62ed3e33306040518363ffffffff1660e01b8152600401610bbc929190611e8e565b60206040518083038186803b158015610bd457600080fd5b505afa158015610be8573d6000803e3d6000fd5b505050506040513d601f19601f82011682018060405250810190610c0c9190611a99565b1015610c4d576040517f08c379a0000000000000000000000000000000000000000000000000000000008152600401610c449061205c565b60405180910390fd5b610c7a3330858873ffffffffffffffffffffffffffffffffffffffff16611568909392919063ffffffff16565b610d0983600560008873ffffffffffffffffffffffffffffffffffffffff1673ffffffffffffffffffffffffffffffffffffffff16815260200190815260200160002060003373ffffffffffffffffffffffffffffffffffffffff1673ffffffffffffffffffffffffffffffffffffffff168152602001908152602001600020546115f190919063ffffffff16565b600560008773ffffffffffffffffffffffffffffffffffffffff1673ffffffffffffffffffffffffffffffffffffffff16815260200190815260200160002060003373ffffffffffffffffffffffffffffffffffffffff1673ffffffffffffffffffffffffffffffffffffffff16815260200190815260200160002081905550600160008154610d9890612338565b9190508190559050846004600083815260200190815260200160002060000160006101000a81548173ffffffffffffffffffffffffffffffffffffffff021916908373ffffffffffffffffffffffffffffffffffffffff160217905550836004600083815260200190815260200160002060010160006101000a81548173ffffffffffffffffffffffffffffffffffffffff021916908373ffffffffffffffffffffffffffffffffffffffff16021790555082600460008381526020019081526020016000206002018190555081600460008381526020019081526020016000206003018190555060006004600083815260200190815260200160002060040160006101000a81548160ff02191690831515021790555060016004600083815260200190815260200160002060040160016101000a81548160ff021916908315150217905550600260008673ffffffffffffffffffffffffffffffffffffffff1673ffffffffffffffffffffffffffffffffffffffff168152602001908152602001600020819080600181540180825580915050600190039060005260206000200160009091909190915055600360008573ffffffffffffffffffffffffffffffffffffffff1673ffffffffffffffffffffffffffffffffffffffff168152602001908152602001600020819080600181540180825580915050600190039060005260206000200160009091909190915055949350505050565b6060600260008373ffffffffffffffffffffffffffffffffffffffff1673ffffffffffffffffffffffffffffffffffffffff16815260200190815260200160002080548060200260200160405190810160405280929190818152602001828054801561103d57602002820191906000526020600020905b815481526020019060010190808311611029575b50505050509050919050565b60008060009054906101000a900473ffffffffffffffffffffffffffffffffffffffff16905090565b61107a611874565b600460008381526020019081526020016000206040518060c00160405290816000820160009054906101000a900473ffffffffffffffffffffffffffffffffffffffff1673ffffffffffffffffffffffffffffffffffffffff1673ffffffffffffffffffffffffffffffffffffffff1681526020016001820160009054906101000a900473ffffffffffffffffffffffffffffffffffffffff1673ffffffffffffffffffffffffffffffffffffffff1673ffffffffffffffffffffffffffffffffffffffff16815260200160028201548152602001600382015481526020016004820160009054906101000a900460ff161515151581526020016004820160019054906101000a900460ff1615151515815250509050919050565b600360205281600052604060002081815481106111b157600080fd5b90600052602060002001600091509150505481565b60008173ffffffffffffffffffffffffffffffffffffffff166370a08231306040518263ffffffff1660e01b81526004016112019190611e73565b60206040518083038186803b15801561121957600080fd5b505afa15801561122d573d6000803e3d6000fd5b505050506040513d601f19601f820116820180604052508101906112519190611a99565b9050919050565b6005602052816000526040600020602052806000526040600020600091509150505481565b60046020528060005260406000206000915090508060000160009054906101000a900473ffffffffffffffffffffffffffffffffffffffff16908060010160009054906101000a900473ffffffffffffffffffffffffffffffffffffffff16908060020154908060030154908060040160009054906101000a900460ff16908060040160019054906101000a900460ff16905086565b600033905090565b611323611560565b73ffffffffffffffffffffffffffffffffffffffff16611341611049565b73ffffffffffffffffffffffffffffffffffffffff1614611397576040517f08c379a000000000000000000000000000000000000000000000000000000000815260040161138e9061209c565b60405180910390fd5b600073ffffffffffffffffffffffffffffffffffffffff168173ffffffffffffffffffffffffffffffffffffffff161415611407576040517f08c379a00000000000000000000000000000000000000000000000000000000081526004016113fe90611ffc565b60405180910390fd5b8073ffffffffffffffffffffffffffffffffffffffff1660008054906101000a900473ffffffffffffffffffffffffffffffffffffffff1673ffffffffffffffffffffffffffffffffffffffff167f8be0079c531659141344cd1fd0a4f28419497f9722a3daafe3b4186f6b6457e060405160405180910390a3806000806101000a81548173ffffffffffffffffffffffffffffffffffffffff021916908373ffffffffffffffffffffffffffffffffffffffff16021790555050565b600081836114d29190612253565b905092915050565b61155b8363a9059cbb60e01b84846040516024016114f9929190611eee565b604051602081830303815290604052907bffffffffffffffffffffffffffffffffffffffffffffffffffffffff19166020820180517bffffffffffffffffffffffffffffffffffffffffffffffffffffffff8381831617835250505050611607565b505050565b600033905090565b6115eb846323b872dd60e01b85858560405160240161158993929190611eb7565b604051602081830303815290604052907bffffffffffffffffffffffffffffffffffffffffffffffffffffffff19166020820180517bffffffffffffffffffffffffffffffffffffffffffffffffffffffff8381831617835250505050611607565b50505050565b600081836115ff91906121fd565b905092915050565b6000611669826040518060400160405280602081526020017f5361666545524332303a206c6f772d6c6576656c2063616c6c206661696c65648152508573ffffffffffffffffffffffffffffffffffffffff166116ce9092919063ffffffff16565b90506000815111156116c9578080602001905181019061168991906119e4565b6116c8576040517f08c379a00000000000000000000000000000000000000000000000000000000081526004016116bf9061213c565b60405180910390fd5b5b505050565b60606116dd84846000856116e6565b90509392505050565b60608247101561172b576040517f08c379a00000000000000000000000000000000000000000000000000000000081526004016117229061203c565b60405180910390fd5b611734856117fa565b611773576040517f08c379a000000000000000000000000000000000000000000000000000000000815260040161176a906120dc565b60405180910390fd5b6000808673ffffffffffffffffffffffffffffffffffffffff16858760405161179c9190611e5c565b60006040518083038185875af1925050503d80600081146117d9576040519150601f19603f3d011682016040523d82523d6000602084013e6117de565b606091505b50915091506117ee82828661180d565b92505050949350505050565b600080823b905060008111915050919050565b6060831561181d5782905061186d565b6000835111156118305782518084602001fd5b816040517f08c379a00000000000000000000000000000000000000000000000000000000081526004016118649190611f9a565b60405180910390fd5b9392505050565b6040518060c00160405280600073ffffffffffffffffffffffffffffffffffffffff168152602001600073ffffffffffffffffffffffffffffffffffffffff16815260200160008152602001600081526020016000151581526020016000151581525090565b6000813590506118e981612694565b92915050565b6000815190506118fe816126ab565b92915050565b600081359050611913816126c2565b92915050565b600081359050611928816126d9565b92915050565b60008151905061193d816126d9565b92915050565b60006020828403121561195557600080fd5b6000611963848285016118da565b91505092915050565b6000806040838503121561197f57600080fd5b600061198d858286016118da565b925050602061199e858286016118da565b9150509250929050565b600080604083850312156119bb57600080fd5b60006119c9858286016118da565b92505060206119da85828601611919565b9150509250929050565b6000602082840312156119f657600080fd5b6000611a04848285016118ef565b91505092915050565b60008060008060808587031215611a2357600080fd5b6000611a3187828801611904565b9450506020611a42878288016118da565b9350506040611a5387828801611919565b9250506060611a6487828801611919565b91505092959194509250565b600060208284031215611a8257600080fd5b6000611a9084828501611919565b91505092915050565b600060208284031215611aab57600080fd5b6000611ab98482850161192e565b91505092915050565b6000611ace8383611e3e565b60208301905092915050565b611ae381612287565b82525050565b611af281612287565b82525050565b6000611b03826121a2565b611b0d81856121d0565b9350611b1883612192565b8060005b83811015611b49578151611b308882611ac2565b9750611b3b836121c3565b925050600181019050611b1c565b5085935050505092915050565b611b5f81612299565b82525050565b611b6e81612299565b82525050565b6000611b7f826121ad565b611b8981856121e1565b9350611b99818560208601612305565b80840191505092915050565b611bae816122e1565b82525050565b611bbd816122e1565b82525050565b6000611bce826121b8565b611bd881856121ec565b9350611be8818560208601612305565b611bf1816123b0565b840191505092915050565b6000611c096020836121ec565b9150611c14826123c1565b602082019050919050565b6000611c2c601d836121ec565b9150611c37826123ea565b602082019050919050565b6000611c4f6026836121ec565b9150611c5a82612413565b604082019050919050565b6000611c72601d836121ec565b9150611c7d82612462565b602082019050919050565b6000611c956026836121ec565b9150611ca08261248b565b604082019050919050565b6000611cb86015836121ec565b9150611cc3826124da565b602082019050919050565b6000611cdb601e836121ec565b9150611ce682612503565b602082019050919050565b6000611cfe6020836121ec565b9150611d098261252c565b602082019050919050565b6000611d216026836121ec565b9150611d2c82612555565b604082019050919050565b6000611d44601d836121ec565b9150611d4f826125a4565b602082019050919050565b6000611d676023836121ec565b9150611d72826125cd565b604082019050919050565b6000611d8a6015836121ec565b9150611d958261261c565b602082019050919050565b6000611dad602a836121ec565b9150611db882612645565b604082019050919050565b60c082016000820151611dd96000850182611ba5565b506020820151611dec6020850182611ada565b506040820151611dff6040850182611e3e565b506060820151611e126060850182611e3e565b506080820151611e256080850182611b56565b5060a0820151611e3860a0850182611b56565b50505050565b611e47816122d7565b82525050565b611e56816122d7565b82525050565b6000611e688284611b74565b915081905092915050565b6000602082019050611e886000830184611ae9565b92915050565b6000604082019050611ea36000830185611ae9565b611eb06020830184611ae9565b9392505050565b6000606082019050611ecc6000830186611ae9565b611ed96020830185611ae9565b611ee66040830184611e4d565b949350505050565b6000604082019050611f036000830185611ae9565b611f106020830184611e4d565b9392505050565b60006020820190508181036000830152611f318184611af8565b905092915050565b600060c082019050611f4e6000830189611bb4565b611f5b6020830188611ae9565b611f686040830187611e4d565b611f756060830186611e4d565b611f826080830185611b65565b611f8f60a0830184611b65565b979650505050505050565b60006020820190508181036000830152611fb48184611bc3565b905092915050565b60006020820190508181036000830152611fd581611bfc565b9050919050565b60006020820190508181036000830152611ff581611c1f565b9050919050565b6000602082019050818103600083015261201581611c42565b9050919050565b6000602082019050818103600083015261203581611c65565b9050919050565b6000602082019050818103600083015261205581611c88565b9050919050565b6000602082019050818103600083015261207581611cab565b9050919050565b6000602082019050818103600083015261209581611cce565b9050919050565b600060208201905081810360008301526120b581611cf1565b9050919050565b600060208201905081810360008301526120d581611d14565b9050919050565b600060208201905081810360008301526120f581611d37565b9050919050565b6000602082019050818103600083015261211581611d5a565b9050919050565b6000602082019050818103600083015261213581611d7d565b9050919050565b6000602082019050818103600083015261215581611da0565b9050919050565b600060c0820190506121716000830184611dc3565b92915050565b600060208201905061218c6000830184611e4d565b92915050565b6000819050602082019050919050565b600081519050919050565b600081519050919050565b600081519050919050565b6000602082019050919050565b600082825260208201905092915050565b600081905092915050565b600082825260208201905092915050565b6000612208826122d7565b9150612213836122d7565b9250827fffffffffffffffffffffffffffffffffffffffffffffffffffffffffffffffff0382111561224857612247612381565b5b828201905092915050565b600061225e826122d7565b9150612269836122d7565b92508282101561227c5761227b612381565b5b828203905092915050565b6000612292826122b7565b9050919050565b60008115159050919050565b60006122b082612287565b9050919050565b600073ffffffffffffffffffffffffffffffffffffffff82169050919050565b6000819050919050565b60006122ec826122f3565b9050919050565b60006122fe826122b7565b9050919050565b60005b83811015612323578082015181840152602081019050612308565b83811115612332576000848401525b50505050565b6000612343826122d7565b91507fffffffffffffffffffffffffffffffffffffffffffffffffffffffffffffffff82141561237657612375612381565b5b600182019050919050565b7f4e487b7100000000000000000000000000000000000000000000000000000000600052601160045260246000fd5b6000601f19601f8301169050919050565b7f596f7520617265206e6f74207468652020667572207769746864726177657221600082015250565b7f546f6b656e7320617265206e6f7420796574206465706f736974656421000000600082015250565b7f4f776e61626c653a206e6577206f776e657220697320746865207a65726f206160008201527f6464726573730000000000000000000000000000000000000000000000000000602082015250565b7f546f6b656e732061726520616c72656164792077697468647261776e21000000600082015250565b7f416464726573733a20696e73756666696369656e742062616c616e636520666f60008201527f722063616c6c0000000000000000000000000000000000000000000000000000602082015250565b7f417070726f766520746f6b656e73206669727374210000000000000000000000600082015250565b7f546f6b656e7320617265207374696c6c20746f206265206c6f636b6564210000600082015250565b7f4f776e61626c653a2063616c6c6572206973206e6f7420746865206f776e6572600082015250565b7f556e6c6f636b2074696d657374616d70206973206e6f7420696e20746865206660008201527f7574757265210000000000000000000000000000000000000000000000000000602082015250565b7f416464726573733a2063616c6c20746f206e6f6e2d636f6e7472616374000000600082015250565b7f556e6c6f636b2074696d657374616d70206973206e6f7420696e207365636f6e60008201527f6473210000000000000000000000000000000000000000000000000000000000602082015250565b7f546f6b656e20616d6f756e7420746f6f206c6f77210000000000000000000000600082015250565b7f5361666545524332303a204552433230206f7065726174696f6e20646964206e60008201527f6f74207375636365656400000000000000000000000000000000000000000000602082015250565b61269d81612287565b81146126a857600080fd5b50565b6126b481612299565b81146126bf57600080fd5b50565b6126cb816122a5565b81146126d657600080fd5b50565b6126e2816122d7565b81146126ed57600080fd5b5056fea2646970667358221220148f74a8d1ac19d336f3671b6707eb5bb85436b8365d28766f9a8b1aee5951d964736f6c63430008030033",
  "immutableReferences": {},
  "source": "// SPDX-License-Identifier: MIT\r\n\r\npragma solidity >=0.4.22 <0.9.0;\r\n\r\nimport \"@openzeppelin/contracts/token/ERC20/IERC20.sol\";\r\nimport \"@openzeppelin/contracts/token/ERC20/utils/SafeERC20.sol\";\r\nimport \"@openzeppelin/contracts/utils/math/SafeMath.sol\";\r\nimport \"@openzeppelin/contracts/access/Ownable.sol\";\r\n\r\ncontract Vault is Ownable {\r\n    using SafeMath for uint256;\r\n    using SafeERC20 for IERC20;\r\n\r\n    struct Items {\r\n        IERC20 token;\r\n        address withdrawer;\r\n        uint256 amount;\r\n        uint256 unlockTimestamp;\r\n        bool withdrawn;\r\n        bool deposited;\r\n    }\r\n\r\n    uint256 public depositsCount;\r\n    mapping (address => uint256[]) public depositsByTokenAddress;\r\n    mapping (address => uint256[]) public depositsByWithdrawers;\r\n    mapping (uint256 => Items) public lockedToken;\r\n    mapping (address => mapping(address => uint256)) public walletTokenBalance;\r\n\r\n    address public helpiMarketingAddress;\r\n\r\n    event Withdraw(address withdrawer, uint256 amount);\r\n\r\n    constructor() {\r\n\r\n    }\r\n\r\n    function lockTokens(IERC20 _token, address _withdrawer, uint256 _amount, uint256 _unlockTimestamp) external returns (uint256 _id) {\r\n        require(_amount > 500, 'Token amount too low!');\r\n        require(_unlockTimestamp < 10000000000, 'Unlock timestamp is not in seconds!');\r\n        require(_unlockTimestamp > block.timestamp, 'Unlock timestamp is not in the future!');\r\n        require(_token.allowance(msg.sender, address(this)) >= _amount, 'Approve tokens first!');\r\n        _token.safeTransferFrom(msg.sender, address(this), _amount);\r\n\r\n        walletTokenBalance[address(_token)][msg.sender] = walletTokenBalance[address(_token)][msg.sender].add(_amount);\r\n\r\n        _id = ++depositsCount;\r\n        lockedToken[_id].token = _token;\r\n        lockedToken[_id].withdrawer = _withdrawer;\r\n        lockedToken[_id].amount = _amount;\r\n        lockedToken[_id].unlockTimestamp = _unlockTimestamp;\r\n        lockedToken[_id].withdrawn = false;\r\n        lockedToken[_id].deposited = true;\r\n\r\n        depositsByTokenAddress[address(_token)].push(_id);\r\n        depositsByWithdrawers[_withdrawer].push(_id);\r\n        return _id;\r\n    }\r\n\r\n    function withdrawTokens(uint256 _id) external {\r\n        require(block.timestamp >= lockedToken[_id].unlockTimestamp, 'Tokens are still to be locked!');\r\n        require(msg.sender == lockedToken[_id].withdrawer, 'You are not the  fur withdrawer!');\r\n        require(lockedToken[_id].deposited, 'Tokens are not yet deposited!');\r\n        require(!lockedToken[_id].withdrawn, 'Tokens are already withdrawn!');\r\n\r\n        lockedToken[_id].withdrawn = true;\r\n\r\n        walletTokenBalance[address(lockedToken[_id].token)][msg.sender] = walletTokenBalance[address(lockedToken[_id].token)][msg.sender].sub(lockedToken[_id].amount);\r\n\r\n        emit Withdraw(msg.sender, lockedToken[_id].amount);\r\n        lockedToken[_id].token.safeTransfer(msg.sender, lockedToken[_id].amount);\r\n    }\r\n\r\n    function getDepositsByTokenAddress(address _id) view external returns (uint256[] memory) {\r\n        return depositsByTokenAddress[_id];\r\n    }\r\n\r\n    function getDepositsByWithdrawer(address _token, address _withdrawer) view external returns (uint256) {\r\n        return walletTokenBalance[_token][_withdrawer];\r\n    }\r\n\r\n    function getVaultsByWithdrawer(address _withdrawer) view external returns (uint256[] memory) {\r\n        return depositsByWithdrawers[_withdrawer];\r\n    }\r\n\r\n    function getVaultById(uint256 _id) view external returns (Items memory) {\r\n        return lockedToken[_id];\r\n    }\r\n\r\n    function getTokenTotalLockedBalance(address _token) view external returns (uint256) {\r\n       return IERC20(_token).balanceOf(address(this));\r\n    }\r\n\r\n    function getsender() view external returns(address) {\r\n        return msg.sender;\r\n    }\r\n}",
  "sourcePath": "C:/Users/surbh/Desktop/vault-dapp/contracts/Vault.sol",
  "compiler": {
    "name": "solc",
    "version": "0.8.3+commit.8d00100c.Emscripten.clang"
  },
  "schemaVersion": "3.3.4",
  "updatedAt": "2021-12-26T06:45:30.346Z",
  "devdoc": {
    "kind": "dev",
    "methods": {
      "owner()": {
        "details": "Returns the address of the current owner."
      },
      "renounceOwnership()": {
        "details": "Leaves the contract without owner. It will not be possible to call `onlyOwner` functions anymore. Can only be called by the current owner. NOTE: Renouncing ownership will leave the contract without an owner, thereby removing any functionality that is only available to the owner."
      },
      "transferOwnership(address)": {
        "details": "Transfers ownership of the contract to a new account (`newOwner`). Can only be called by the current owner."
      }
    },
    "version": 1
  },
  "userdoc": {
    "kind": "user",
    "methods": {},
    "version": 1
  }
}